:101F00000FEF0DBF04E00EBFA89504B703FD1FC07F
:101F10002FD00FE437D0A89508E1009360000FE0C0
:101F2000009360000091C00007FFFCCF0091C60045
:101F30000335C1F72227A89533D0213029F0A89581
:101F40004CD050D0A895F7CF24D00734E9F700271C
:101F500004BF0091600008610093600000270093B7
:101F600060000024112400274424552449C0FFCFD9
:101F700000E00093C50000E40093C40008E1009372
:101F8000C10008953091C00035FFFCCF0093C6001A
:101F900008953091C00037FFFCCF0091C60008952E
:101FA000F8DF0035E9F700E7EDDFF3DFEBDF0F3FA8
:101FB00091F0502EEEDFE6DF402EEE27FF27E9DF1F
:101FC000E1DF002EE6DFDEDF102E11E012D03296C8
:101FD000E034A9F701C021E00895E42DF52D13E0C8
:101FE00008D00895E42DF52D15E003D001D0089513
:0E1FF00011E107B700FDFDCF17BFE89508957A
:00000001FF
